:040000000128EF2FB5
:1001F60070082C0095009401080064340034003423
:100206000034743400340F210B214821E9260929D2
:0602160069212921080006
:10021E00783021009904033099041A1A0800142921
:10022E007808F0007908F100F2018E30FB007B08AF
:10023E00F300F40115227008F8007108F900720835
:10024E00FA000800FF30F0000730F1008B21710832
:10025E00F9007008F800FF307805F60000307905D7
:10026E00F700760A7704031D42292130F60076083E
:10027E002000EC0008007808F60076082000EC005C
:10028E00080022000C1233302000AE000030AF0008
:10029E00792220002F08E2002E08E1000C1C5C29B8
:1002AE000230E135E20D890B58298C1C632904308C
:1002BE00E135E20D890B5F296208DC006108DB0085
:1002CE009924080023008E018C0121008C01FF303F
:1002DE008E0022008C018E0121000E148E1422003D
:1002EE000E108E1021000E120E1122000E120E1183
:1002FE002100951324000C08C03920388C002100F1
:10030E008C1622008C120800F401F50170082300EF
:10031E0091000830F136F00C890B9129700892008B
:10032E00151315140000000023001408F200F30149
:10033E007208F4007308F5000830F435F50D890BDA
:10034E00A4291308F200F3017208F4047308F504EB
:10035E007508F1007408F00008000030FB00003052
:10036E00FA000030F9000030F800701CC62974083D
:10037E00F8077508F93D7608FA3D7708FB3D013020
:10038E00F435F50DF60DF70D890BC7290130F3364F
:10039E00F20CF10CF00C890BCE2973087204710467
:1003AE007004031DBC297B08F3007A08F20079085B
:1003BE00F1007808F000080000307102F6300319E1
:1003CE0070020318EE29FA30F20000300A2A0330C8
:1003DE007102983003197002031C002A0330710257
:1003EE00E930031970020318002AE930F2000330D5
:1003FE000A2A27307102103003197002031C0C2ACE
:10040E001030F2002730F300102A7108F300700844
:10041E00F2007308F1007208F00008007308031967
:10042E001D2A720871047004031D2E2A0030F0007C
:10043E000030F1000030F20008000130F5007508C0
:10044E00F3070130F236F10CF00C890B292AFE303D
:10045E0072050319472A242A0130F5007508F3079F
:10046E000130F007003003180130F1070030031897
:10047E000130F2070130F236F10CF00C890B422AF2
:10048E00FF3072050319582A332A02307302031CF7
:10049E005A2A0130F3020130F035F10DF20D890BBD
:1004AE00532AF11F4C2A7318622AFF30F0057F3051
:1004BE00F105FF30F2050310F30C7308F500F60199
:1004CE00F7011030F535F60DF70D890B692A750811
:1004DE00F0047608F1047708F20474080319080092
:1004EE00F217080000302000A3000030A2000030F8
:1004FE00A1003C30A0002E08F0002F08F100890D5D
:10050E00893B8909F200F3000030840081308500B8
:10051E00003FF400013FF500023FF600033FF700F5
:10052E00B42173082000A7007208A6007108A50068
:10053E007008A400E82220002308B3002208B200AD
:10054E002108B1002008B0003308F3003208F20091
:10055E003108F1003008F0000030F7000030F600EE
:10056E000330F5002030F400B42173082000B700EA
:10057E007208B6007108B5007008B400003084002F
:10058E0081308500003FA000013FA100023FA20084
:10059E00033FA3003708A7003608A6003508A500BC
:1005AE003408A400E82220002308B7002208B60071
:1005BE002108B5002008B4003508AF003408AE009D
:1005CE0008002000A901A31FF92AA009A109A20968
:1005DE00A309A00A0319A10A0319A20A0319A30A5F
:1005EE00A901A90AA71F0A2BA409A509A609A709EB
:1005FE00A40A0319A50A0319A60A0319A70A0130AA
:10060E00FC007C08A9060030AD000030AC000030C4
:10061E00AB000030AA002308220421042004031991
:10062E00532BA801A80AA31B282B0130A035A10D1E
:10063E00A20DA30D890B1D2B0130FC007C08A80711
:10064E001A2B0130AA35AB0DAC0DAD0D890B292B34
:10065E0023082702031D3D2B22082602031D3D2BD6
:10066E0021082502031D3D2B20082402031C482BC4
:10067E002008A4022108A53B2208A63B2308A73B7D
:10068E002A140130A336A20CA10CA00C890B492B05
:10069E000130A802031D282B29080319612BAA0972
:1006AE00AB09AC09AD09AA0A0319AB0A0319AC0AC6
:1006BE000319AD0A2D08A3002C08A2002B08A100D7
:1006CE002A08A000080020004D08D1004E08D200D4
:1006DE004F08D3000310520D530DD4005408DA0006
:1006EE005A08031D832B0030D0000030CF0000309D
:1006FE00CE000030CD0008004D08D1004E08D200CB
:10070E004F08D3001730D336D20CD10C890B8A2B5D
:10071E005108D4005408D500CE17FF30CD05FF3058
:10072E00CE050030CF054D08D6004E08D7004F0835
:10073E00D800D9018E30DA02DA1FC12B5A08803A5E
:10074E008F3E0318B32B0030D0000030CF000030A6
:10075E00CE000030CD0008000130D936D80CD70CB1
:10076E00D60C890BB42B0130D1005108DA070319CE
:10077E00DA2BB32B18305A02031CD72B0030D000C3
:10078E000030CF000030CE000030CD000800013028
:10079E00D635D70DD80DD90D890BCF2B0130DA02F6
:1007AE005A08031DCE2B55080319E82BD609D70975
:1007BE00D809D909D60A0319D70A0319D80A031971
:1007CE00D90A5908D0005808CF005708CE0056084D
:1007DE00CD00080020003308B6003408B7003508F5
:1007EE00B8000310370D380DB9003908BE003E08A9
:1007FE00031D082C0030B0000030B1000030B200F4
:10080E0008003008B6003108B7003208B8000310EF
:10081E00370D380DB9003908BF003F08031D1E2CD7
:10082E000030B0000030B1000030B20008000030DF
:10083E00BB000030BC000030BD0089303F07B60061
:10084E003608BE023308B6003408B7003508B800C3
:10085E001030B836B70CB60C890B302C3608B900F0
:10086E003908BF003008B6003108B7003208B800AA
:10087E001030B836B70CB60C890B402C3608B900C0
:10088E003908BF068030B6003608BF05B417FF30F2
:10089E00B305FF30B4050030B505B117FF30B00514
:1008AE00FF30B1050030B2051830B6003608BA0078
:1008BE000130BB35BC0DBD0D890B602C32083502E5
:1008CE00031D6F2C31083402031D6F2C30083302C8
:1008DE00031C782C3008B3023108B43B3208B53B08
:1008EE003B140130B335B40DB50D890B792C0130A5
:1008FE00BA02031D5F2C3B08F0003C08F1003D08D6
:10090E00F2003E08B6003608F3003F08B70037087D
:10091E00F400152270082000B0007108B1007208B2
:10092E00B200080020005C08F1005B08F000E32133
:10093E0071082000E0007008DF0021008E11C03029
:10094E002C009600200092010330600299300319AA
:10095E005F020318EE2C0030B3008030B4003F303D
:10096E00B5006008F9005F08F8001721780820002C
:10097E00A3007908A4007A08A5003830A0008630BC
:10098E00A1003730A200412520002008B000210828
:10099E00B1002208B200F12320003008C300310854
:1009AE00C4003208C5000030C0008030C100BF3026
:1009BE00C200F42520004008CD004108CE004208B8
:1009CE00CF006A2320004D089B000730292D0030F0
:1009DE00B3008030B4003F30B5006008F9005F0806
:1009EE00F800172178082000A3007908A4007A08DF
:1009FE00A5003830A0008630A1003630A200412577
:100A0E0020002008B0002108B1002208B200F12316
:100A1E0020003008C3003108C4003208C500003081
:100A2E00C0008030C100BF30C200F4252000400855
:100A3E00CD004108CE004208CF006A2320004D08A9
:100A4E009B0006309C001B08FC00FD017C08DD00AD
:100A5E007D08DE005E08FD005D08FC00FD36FC0C26
:100A6E007C08DD007D08DE005E08F1005D08F00008
:100A7E00FB20080020002008A6002108A70022085D
:100A8E00A8000310270D280DA9002908AA002A087E
:100A9E00031D582D0030A0000030A1000030A20030
:100AAE0008002308A6002408A7002508A8000310A4
:100ABE00270D280DA9002908AF002F08031D6E2D44
:100ACE000030A0000030A1000030A20008002F0866
:100ADE007B3EA6002608AA072008A6002108A7002C
:100AEE002208A8001030A836A70CA60C890B7A2D68
:100AFE002608A9002908AF002308A6002408A7008D
:100B0E002508A8001030A836A70CA60C890B8A2D34
:100B1E002608A9002908AF068030A6002608AF05D2
:100B2E00A117A417FF30A305FF30A4050030A505BB
:100B3E000030AB000030AC000030AD000730A60036
:100B4E002608AE00201CB12D2308AB072408AC3DAF
:100B5E002508AD3D0130A236A10CA00C890BB22D9B
:100B6E000130A335A40DA50D890BB82D0130AE02B1
:100B7E00031DA92D0930A6002608AE00201CCD2D80
:100B8E002308AB072408AC3D2508AD3D0130A23645
:100B9E00A10CA00C890BCE2D0130AD36AC0CAB0CDC
:100BAE00890BD42D0130AE02031DC52D2B08F0008C
:100BBE002C08F1002D08F2002A08A6002608F300E2
:100BCE002F08A7002708F400152270082000A000A7
:100BDE007108A1007208A200080020004008C6009B
:100BEE004108C7004208C8000310470D480DC90050
:100BFE004908CC004308C6004408C7004508C80091
:100C0E000310470D480DC9004908CB004C080319C5
:100C1E001C2E4B084C020318232E4C03FF3A4B0795
:100C2E00C60019304602031C232E4308C000440898
:100C3E00C1004508C20008004B08031908004C0803
:100C4E004B020318322E4B03FF3A4C07C6001930E5
:100C5E004602031808000630C6004608CA00C21B2A
:100C6E00CA17C51B4A17C117FF30C005FF30C10593
:100C7E000030C205C417FF30C305FF30C405003075
:100C8E00C5054B084C0203186E2E0130C335C40D3A
:100C9E00C50D890B4D2E0130CB024B084C060319A6
:100CAE00692E0130CA024A0807390319692E4C2EE3
:100CBE000130C236C10CC00C890B602E0130C6004B
:100CCE004608CC074C084B060319932E5F2E4C0892
:100CDE004B020318932E0130C035C10DC20D890B86
:100CEE00732E0130CC024B084C0603198F2E0130A7
:100CFE00CA024A08073903198F2E722E0130C536E3
:100D0E00C40CC30C890B862E0130C6004608CB07D7
:100D1E004C084B06031D852ECA1FA52EFF30C0069C
:100D2E00FF30C106FF30C2060130C0070030031885
:100D3E000130C107003003180130C2074A1FB72E19
:100D4E00FF30C306FF30C406FF30C5060130C307AF
:100D5E00003003180130C407003003180130C507F6
:100D6E00CA014008C3074108C43D4208C53DC51F1E
:100D7E00D22EFF30C306FF30C406FF30C506013049
:100D8E00C307003003180130C407003003180130C8
:100D9E00C507CA01CA0A4308F0004408F100450815
:100DAE00F2004C08C6004608F3004A08C700470880
:100DBE00F400152270082000C0007108C1007208EE
:100DCE00C2000800003020000C180130F500003081
:100DDE008C180130F400670868040319FD2E0030EA
:100DEE006802063003196702031C072F7508031DDE
:100DFE00072F7408031D072F0130E7000030E800AD
:100E0E0067036804031D1B2F7503031D7403031D65
:100E1E001B2F7503031D152FE901172FE901E90A91
:100E2E000230E7000030E800023067066804031D58
:100E3E00362F00302100A3000230A2004C30A1005A
:100E4E004830A0002000EB01EB0A7508031D362F79
:100E5E007408031D362F0330E7000030E80003301E
:100E6E0067066804031D612F0130F0000030F100A9
:100E7E000030F2000030F30070082100A00271086B
:100E8E00A13B7208A23B7308A33B23082204210452
:100E9E002004031D572F04302000E7000030E80027
:100EAE007503031D7403031D612F01302000E7003D
:100EBE000030E8000430200067066804031D6C2F24
:100ECE00EB010130E7000030E800053067066804EA
:100EDE00031D842FEA01EA0AEB01E61B812F660847
:100EEE00031D842FD13063024530643B0830653BCF
:100EFE000318842FEA01E701E801E61B952F660827
:100F0E00031D912F203063023130643B0930653B65
:100F1E00031C952F0530E7000030E8006B03031D1E
:100F2E00C12F22000E1620006903031DA12F2200DF
:100F3E000C15A32F22000C1101302000E307003006
:100F4E00E43D0030E53D0030E63DE61BC12F66086E
:100F5E00031DB92F213063023130643B0930653BEC
:100F6E00031CC12F0030E6000930E5003130E400EB
:100F7E002030E3006B08031DE62F22000E12FF3017
:100F8E002000E307FF30E43DFF30E53DFF30E63D56
:100F9E00E61BDE2F6608031DE62F6508031DE62FF0
:100FAE006408031DE62F013063020318E62F00309C
:100FBE00E6000030E5000030E4000030E3006A088F
:100FCE000319EC2F22000C16080022000C12080048
:100FDE00E301E401E501E601E701E801E901EA01C7
:100FEE00EB01EC012100A001A101A201A30120004F
:020FFE000629C2
:020000040001F9
:02000E00C4FF2D
:00000001FF
