:040000000128EF2FB5
:1001FA006B212B2108006434003400340034743439
:10020A0000341121FD204A21EB26092970082C000F
:06021A00950094010800AC
:10022200783021009904033099041A1A080016291B
:100232007808F0007908F100F2018E30FB007B08AB
:10024200F300F40117227008F8007108F90072082F
:10025200FA000800FF30F0000730F1008D2171082C
:10026200F9007008F800FF307805F60000307905D3
:10027200F700760A7704031D44292130F600760838
:100282002000EC0008007808F60076082000EC0058
:10029200080022000C1233302000AE000030AF0004
:1002A2007B2220002F08E2002E08E1000C1C5E29B0
:1002B2000230E135E20D890B5A298C1C6529043084
:1002C200E135E20D890B61296208DC006108DB007F
:1002D2009B24080023008E018C0121008C01FF3039
:1002E2008E0022008C018E0121000E148E14220039
:1002F2000E108E1021000E120E1122000E120E117F
:100302002100951324000C08C03920388C002100EC
:100312008C1622008C120800F401F50170082300EB
:1003220091000830F136F00C890B93297008920085
:10033200151315140000000023001408F200F30145
:100342007208F4007308F5000830F435F50D890BD6
:10035200A6291308F200F3017208F4047308F504E5
:100362007508F1007408F00008000030FB0000304E
:10037200FA000030F9000030F800701CC829740837
:10038200F8077508F93D7608FA3D7708FB3D01301C
:10039200F435F50DF60DF70D890BC9290130F33649
:1003A200F20CF10CF00C890BD02973087204710461
:1003B2007004031DBE297B08F3007A08F200790855
:1003C200F1007808F000080000307102F6300319DD
:1003D20070020318F029FA30F20000300C2A0330C0
:1003E2007102983003197002031C022A0330710251
:1003F200E930031970020318022AE930F2000330CF
:100402000C2A27307102103003197002031C0E2AC5
:100412001030F2002730F300122A7108F30070083E
:10042200F2007308F1007208F00008007308031963
:100432001F2A720871047004031D302A0030F00074
:100442000030F1000030F20008000130F5007508BC
:10045200F3070130F236F10CF00C890B2B2AFE3037
:1004620072050319492A262A0130F5007508F30797
:100472000130F007003003180130F1070030031893
:100482000130F2070130F236F10CF00C890B442AEC
:10049200FF30720503195A2A352A02307302031CEF
:1004A2005C2A0130F3020130F035F10DF20D890BB7
:1004B200552AF11F4E2A7318642AFF30F0057F3047
:1004C200F105FF30F2050310F30C7308F500F60195
:1004D200F7011030F535F60DF70D890B6B2A75080B
:1004E200F0047608F1047708F2047408031908008E
:1004F200F217080000302000A3000030A2000030F4
:10050200A1003C30A0002E08F0002F08F100890D58
:10051200893B8909F200F3000030840081308500B4
:10052200003FF400013FF500023FF600033FF700F1
:10053200B62173082000A7007208A6007108A50062
:100542007008A400EA2220002308B3002208B200A7
:100552002108B1002008B0003308F3003208F2008D
:100562003108F1003008F0000030F7000030F600EA
:100572000330F5002030F400B62173082000B700E4
:100582007208B6007108B5007008B400003084002B
:1005920081308500003FA000013FA100023FA20080
:1005A200033FA3003708A7003608A6003508A500B8
:1005B2003408A400EA2220002308B7002208B6006B
:1005C2002108B5002008B4003508AF003408AE0099
:1005D20008002000A901A31FFB2AA009A109A20962
:1005E200A309A00A0319A10A0319A20A0319A30A5B
:1005F200A901A90AA71F0C2BA409A509A609A709E5
:10060200A40A0319A50A0319A60A0319A70A0130A5
:10061200FC007C08A9060030AD000030AC000030C0
:10062200AB000030AA00230822042104200403198D
:10063200552BA801A80AA31B2A2B0130A035A10D16
:10064200A20DA30D890B1F2B0130FC007C08A8070B
:100652001C2B0130AA35AB0DAC0DAD0D890B2B2B2C
:1006620023082702031D3F2B22082602031D3F2BCE
:1006720021082502031D3F2B20082402031C4A2BBC
:100682002008A4022108A53B2208A63B2308A73B79
:100692002A140130A336A20CA10CA00C890B4B2BFF
:1006A2000130A802031D2A2B29080319632BAA096A
:1006B200AB09AC09AD09AA0A0319AB0A0319AC0AC2
:1006C2000319AD0A2D08A3002C08A2002B08A100D3
:1006D2002A08A000080020004D08D1004E08D200D0
:1006E2004F08D3000310520D530DD4005408DA0002
:1006F2005A08031D852B0030D0000030CF00003097
:10070200CE000030CD0008004D08D1004E08D200C6
:100712004F08D3001730D336D20CD10C890B8C2B57
:100722005108D4005408D500CE17FF30CD05FF3054
:10073200CE050030CF054D08D6004E08D7004F0831
:10074200D800D9018E30DA02DA1FC32B5A08803A58
:100752008F3E0318B52B0030D0000030CF000030A0
:10076200CE000030CD0008000130D936D80CD70CAD
:10077200D60C890BB62B0130D1005108DA070319C8
:10078200DC2BB52B18305A02031CD92B0030D000B9
:100792000030CF000030CE000030CD000800013024
:1007A200D635D70DD80DD90D890BD12B0130DA02F0
:1007B2005A08031DD02B55080319EA2BD609D7096D
:1007C200D809D909D60A0319D70A0319D80A03196D
:1007D200D90A5908D0005808CF005708CE00560849
:1007E200CD00080020003308B6003408B7003508F1
:1007F200B8000310370D380DB9003908BE003E08A5
:10080200031D0A2C0030B0000030B1000030B200ED
:1008120008003008B6003108B7003208B8000310EB
:10082200370D380DB9003908BF003F08031D202CD1
:100832000030B0000030B1000030B20008000030DB
:10084200BB000030BC000030BD0089303F07B6005D
:100852003608BE023308B6003408B7003508B800BF
:100862001030B836B70CB60C890B322C3608B900EA
:100872003908BF003008B6003108B7003208B800A6
:100882001030B836B70CB60C890B422C3608B900BA
:100892003908BF068030B6003608BF05B417FF30EE
:1008A200B305FF30B4050030B505B117FF30B00510
:1008B200FF30B1050030B2051830B6003608BA0074
:1008C2000130BB35BC0DBD0D890B622C32083502DF
:1008D200031D712C31083402031D712C30083302C0
:1008E200031C7A2C3008B3023108B43B3208B53B02
:1008F2003B140130B335B40DB50D890B7B2C01309F
:10090200BA02031D612C3B08F0003C08F1003D08CF
:10091200F2003E08B6003608F3003F08B700370879
:10092200F400172270082000B0007108B1007208AC
:10093200B200080020005C08F1005B08F000E5212D
:1009420071082000E0007008DF0021008E11C03025
:100952002C009600200092010330600299300319A6
:100962005F020318F02C0030B3008030B4003F3037
:10097200B5006008F9005F08F80019217808200026
:10098200A3007908A4007A08A5003830A0008630B8
:10099200A1003730A200432520002008B000210822
:1009A200B1002208B200F32320003008C30031084E
:1009B200C4003208C5000030C0008030C100BF3022
:1009C200C200F62520004008CD004108CE004208B2
:1009D200CF006C2320004D089B0007302B2D0030E8
:1009E200B3008030B4003F30B5006008F9005F0802
:1009F200F800192178082000A3007908A4007A08D9
:100A0200A5003830A0008630A1003630A200432570
:100A120020002008B0002108B1002208B200F32310
:100A220020003008C3003108C4003208C50000307D
:100A3200C0008030C100BF30C200F625200040084F
:100A4200CD004108CE004208CF006C2320004D08A3
:100A52009B0006309C001B08FC00FD017C08DD00A9
:100A62007D08DE005E08FD005D08FC00FD36FC0C22
:100A72007C08DD007D08DE005E08F1005D08F00004
:100A82000B21080020002008A6002108A700220848
:100A9200A8000310270D280DA9002908AA002A087A
:100AA200031D5A2D0030A0000030A1000030A2002A
:100AB20008002308A6002408A7002508A8000310A0
:100AC200270D280DA9002908AF002F08031D702D3E
:100AD2000030A0000030A1000030A20008002F0862
:100AE2007B3EA6002608AA072008A6002108A70028
:100AF2002208A8001030A836A70CA60C890B7C2D62
:100B02002608A9002908AF002308A6002408A70088
:100B12002508A8001030A836A70CA60C890B8C2D2E
:100B22002608A9002908AF068030A6002608AF05CE
:100B3200A117A417FF30A305FF30A4050030A505B7
:100B42000030AB000030AC000030AD000730A60032
:100B52002608AE00201CB32D2308AB072408AC3DA9
:100B62002508AD3D0130A236A10CA00C890BB42D95
:100B72000130A335A40DA50D890BBA2D0130AE02AB
:100B8200031DAB2D0930A6002608AE00201CCF2D78
:100B92002308AB072408AC3D2508AD3D0130A23641
:100BA200A10CA00C890BD02D0130AD36AC0CAB0CD6
:100BB200890BD62D0130AE02031DC72D2B08F00084
:100BC2002C08F1002D08F2002A08A6002608F300DE
:100BD2002F08A7002708F400172270082000A000A1
:100BE2007108A1007208A200080020004008C60097
:100BF2004108C7004208C8000310470D480DC9004C
:100C02004908CC004308C6004408C7004508C8008C
:100C12000310470D480DC9004908CB004C080319C1
:100C22001E2E4B084C020318252E4C03FF3A4B078D
:100C3200C60019304602031C252E4308C000440892
:100C4200C1004508C20008004B08031908004C08FF
:100C52004B020318342E4B03FF3A4C07C6001930DF
:100C62004602031808000630C6004608CA00C21B26
:100C7200CA17C51B4A17C117FF30C005FF30C1058F
:100C82000030C205C417FF30C305FF30C405003071
:100C9200C5054B084C020318702E0130C335C40D34
:100CA200C50D890B4F2E0130CB024B084C060319A0
:100CB2006B2E0130CA024A08073903196B2E4E2ED9
:100CC2000130C236C10CC00C890B622E0130C60045
:100CD2004608CC074C084B060319952E612E4C088A
:100CE2004B020318952E0130C035C10DC20D890B80
:100CF200752E0130CC024B084C060319912E01309F
:100D0200CA024A0807390319912E742E0130C536DA
:100D1200C40CC30C890B882E0130C6004608CB07D1
:100D22004C084B06031D872ECA1FA72EFF30C00694
:100D3200FF30C106FF30C2060130C0070030031881
:100D42000130C107003003180130C2074A1FB92E13
:100D5200FF30C306FF30C406FF30C5060130C307AB
:100D6200003003180130C407003003180130C507F2
:100D7200CA014008C3074108C43D4208C53DC51F1A
:100D8200D42EFF30C306FF30C406FF30C506013043
:100D9200C307003003180130C407003003180130C4
:100DA200C507CA01CA0A4308F0004408F100450811
:100DB200F2004C08C6004608F3004A08C70047087C
:100DC200F400172270082000C0007108C1007208E8
:100DD200C2000800003020000C180130F50000307D
:100DE2008C180130F400670868040319FF2E0030E4
:100DF2006802063003196702031C092F7508031DD8
:100E0200092F7408031D092F0130E7000030E800A4
:100E120067036804031D1D2F7503031D7403031D5F
:100E22001D2F7503031D172FE901192FE901E90A87
:100E32000230E7000030E800023067066804031D54
:100E4200382F00302100A3000930A2003130A10068
:100E52002030A0002000EB01EB0A7508031D382F9B
:100E62007408031D382F0330E7000030E800033018
:100E720067066804031D632F0130F0000030F100A3
:100E82000030F2000030F30070082100A002710867
:100E9200A13B7208A23B7308A33B2308220421044E
:100EA2002004031D592F04302000E7000030E80021
:100EB2007503031D7403031D632F01302000E70037
:100EC2000030E8000430200067066804031D6E2F1E
:100ED200EB010130E7000030E800053067066804E6
:100EE200031D862FEA01EA0AEB01E61B832F66083F
:100EF200031D862F613063022E30643BF830653B60
:100F02000318862FEA01E701E801E61B962FC0309D
:100F12006302C130643B1330653B0130663B031C06
:100F2200962F0530E7000030E8006B03031DC12F48
:100F320022000E1620006903031DA22F22000C15A9
:100F4200A42F22000C1101302000E3070030E43D01
:100F52000030E53D0030E63DE61BC12FC1306302A3
:100F6200C130643B1330653B0130663B031CC12F2B
:100F72000130E6001330E500C130E400C030E30088
:100F82006B08031DE62F22000E12FF302000E3073C
:100F9200FF30E43DFF30E53DFF30E63DE61BDE2F4E
:100FA2006608031DE62F6508031DE62F6408031D6E
:100FB200E62F013063020318E62F0030E60000300E
:100FC200E5000030E4000030E3006A080319EC2F6A
:100FD20022000C16080022000C120800E301E401B2
:100FE200E501E601E701E801E901EA01EB01EC01B3
:0E0FF2002100A001A101A201A30120000629F7
:020000040001F9
:02000E00C4FF2D
:00000001FF
