:040000000128F22FB2
:04040000743400341C
:10049A009C227D22080070082C0095009401080017
:1004AA005A224D226222ED26582A783021009904D8
:1004BA00033099041A1A08005F2A22000C165230D7
:1004CA002000DB000330DC00022408007808F0007A
:1004DA007908F100F2018E30FB007B08F300F40189
:1004EA0017237008F8007108F9007208FA0008006A
:1004FA00FF30F0000730F100BC227108F9007008E3
:10050A00F800FF307805F60000307905F700760A22
:10051A007704031D962A2130F60076082000E800A9
:10052A0008007808F60076082000E8000800230092
:10053A008E018C0121008C01FF308E0022008C017B
:10054A008E0121000E148E1422000E108E1021002E
:10055A000E120E1122000E120E11210095133F30B9
:10056A0024008C0421008C1622008C120800F4014D
:10057A00F5017008230091000830F136F00C890B60
:10058A00C22A7008920015131514000000002300F7
:10059A001408F200F3017208F4007308F500083039
:1005AA00F435F50D890BD52A1308F200F301720808
:1005BA00F4047308F5047508F1007408F0000800E3
:1005CA0000307102F630031970020318F02AFA306B
:1005DA00F20000300C2B03307102983003197002BC
:1005EA00031C022B03307102E9300319700203184D
:1005FA00022BE930F20003300C2B27307102103045
:10060A0003197002031C0E2B1030F2002730F3007E
:10061A00122B7108F3007008F2007308F1007208D7
:10062A00F0000800730803191F2B72087104700484
:10063A00031D302B0030F0000030F1000030F200D2
:10064A0008000130F5007508F3070130F236F10CA5
:10065A00F00C890B2B2BFE3072050319492B262B24
:10066A000130F5007508F3070130F0070030031870
:10067A000130F107003003180130F2070130F23679
:10068A00F10CF00C890B442BFF30720503195A2B1D
:10069A00352B02307302031C5C2B0130F30201304C
:1006AA00F035F10DF20D890B552BF11F4E2B7318F6
:1006BA00642BFF30F0057F30F105FF30F20503109F
:1006CA00F30C7308F500F601F7011030F535F60D55
:1006DA00F70D890B6B2B7508F0047608F10477087F
:1006EA00F204740803190800F217080020004D08E4
:1006FA00D1004E08D2004F08D3000310520D530DFB
:10070A00D4005408DA005A08031D942B0030D00094
:10071A000030CF000030CE000030CD0008004D0878
:10072A00D1004E08D2004F08D3001730D336D20C6E
:10073A00D10C890B9B2B5108D4005408D500CE1735
:10074A00FF30CD05FF30CE050030CF054D08D6006D
:10075A004E08D7004F08D800D9018E30DA02DA1FC6
:10076A00D22B5A08803A8F3E0318C42B0030D0008F
:10077A000030CF000030CE000030CD00080001303C
:10078A00D936D80CD70CD60C890BC52B0130D10021
:10079A005108DA070319EB2BC42B18305A02031C31
:1007AA00E82B0030D0000030CF000030CE000030FF
:1007BA00CD0008000130D635D70DD80DD90D890BDB
:1007CA00E02B0130DA025A08031DDF2B5508031902
:1007DA00F92BD609D709D809D909D60A0319D70A8C
:1007EA000319D80A0319D90A5908D0005808CF00A2
:1007FA005708CE005608CD00080020005C08F1001A
:10080A005B08F000E5227108FD007008FC00E73083
:10081A0021008E008E11C0302C009600200092011B
:10082A004030F0000030F100502203307D02993050
:10083A0003197C0203185F2C00302000B3008030BB
:10084A00B4003F30B5007D08F9007C08F8006B223F
:10085A0078082000A3007908A4007A08A500383097
:10086A00A0008630A1003730A200452520002008CC
:10087A00B0002108B1002208B2009D2420003008EF
:10088A00C3003108C4003208C5000030C0008030FF
:10089A00C100BF30C200F82520004008CD00410841
:1008AA00CE004208CF007B2320004D089B00073072
:1008BA009C00080000302000B3008030B4003F30B4
:1008CA00B5007D08F9007C08F8006B227808200042
:1008DA00A3007908A4007A08A5003830A000863061
:1008EA00A1003630A200452520002008B0002108CA
:1008FA00B1002208B2009D2420003008C30031084C
:10090A00C4003208C5000030C0008030C100BF30CA
:10091A00C200F82520004008CD004108CE00420858
:10092A00CF007B2320004D089B0006309C00080066
:10093A0020003308B6003408B7003508B8000310A1
:10094A00370D380DB9003908BE003E08031DB42C16
:10095A000030B0000030B1000030B20008003008AA
:10096A00B6003108B7003208B8000310370D380D49
:10097A00B9003908BF003F08031DCA2C0030B00077
:10098A000030B1000030B20008000030BB00003077
:10099A00BC000030BD0089303F07B6003608BE02F1
:1009AA003308B6003408B7003508B8001030B83636
:1009BA00B70CB60C890BDC2C3608B9003908BF0015
:1009CA003008B6003108B7003208B8001030B8361F
:1009DA00B70CB60C890BEC2C3608B9003908BF06DF
:1009EA008030B6003608BF05B417FF30B305FF30B4
:1009FA00B4050030B505B117FF30B005FF30B105B9
:100A0A000030B2051830B6003608BA000130BB35DE
:100A1A00BC0DBD0D890B0C2D32083502031D1B2D93
:100A2A0031083402031D1B2D30083302031C242D08
:100A3A003008B3023108B43B3208B53B3B140130ED
:100A4A00B335B40DB50D890B252D0130BA02031D3E
:100A5A000B2D3B08F0003C08F1003D08F2003E086F
:100A6A00B6003608F3003F08B7003708F40017232A
:100A7A0070082000B0007108B1007208B2000800C6
:100A8A0020002008A6002108A7002208A8000310B9
:100A9A00270D280DA9002908AA002A08031D5C2D84
:100AAA000030A0000030A1000030A2000800230896
:100ABA00A6002408A7002508A8000310270D280D62
:100ACA00A9002908AF002F08031D722D0030A000CD
:100ADA000030A1000030A20008002F087B3EA600CB
:100AEA002608AA072008A6002108A7002208A800AD
:100AFA001030A836A70CA60C890B7E2D2608A90053
:100B0A002908AF002308A6002408A7002508A80082
:100B1A001030A836A70CA60C890B8E2D2608A90022
:100B2A002908AF068030A6002608AF05A117A4172A
:100B3A00FF30A305FF30A4050030A5050030AB0047
:100B4A000030AC000030AD000730A6002608AE0029
:100B5A00201CB52D2308AB072408AC3D2508AD3D64
:100B6A000130A236A10CA00C890BB62D0130A33599
:100B7A00A40DA50D890BBC2D0130AE02031DAD2DB0
:100B8A000930A6002608AE00201CD12D2308AB0789
:100B9A002408AC3D2508AD3D0130A236A10CA00CBD
:100BAA00890BD22D0130AD36AC0CAB0C890BD82D8C
:100BBA000130AE02031DC92D2B08F0002C08F100EC
:100BCA002D08F2002A08A6002608F3002F08A7001D
:100BDA002708F400172370082000A0007108A1005C
:100BEA007208A200080020004008C6004108C70099
:100BFA004208C8000310470D480DC9004908CC0037
:100C0A004308C6004408C7004508C8000310470D3A
:100C1A00480DC9004908CB004C080319202E4B087F
:100C2A004C020318272E4C03FF3A4B07C600193013
:100C3A004602031C272E4308C0004408C100450889
:100C4A00C20008004B08031908004C084B0203189D
:100C5A00362E4B03FF3A4C07C600193046020318DA
:100C6A0008000630C6004608CA00C21BCA17C51BC0
:100C7A004A17C117FF30C005FF30C1050030C20551
:100C8A00C417FF30C305FF30C4050030C5054B0843
:100C9A004C020318722E0130C335C40DC50D890BE1
:100CAA00512E0130CB024B084C0603196D2E013030
:100CBA00CA024A08073903196D2E502E0130C2366E
:100CCA00C10CC00C890B642E0130C6004608CC0743
:100CDA004C084B060319972E632E4C084B02031837
:100CEA00972E0130C035C10DC20D890B772E013008
:100CFA00CC024B084C060319932E0130CA024A084B
:100D0A0007390319932E762E0130C536C40CC30C4D
:100D1A00890B8A2E0130C6004608CB074C084B06C1
:100D2A00031D892ECA1FA92EFF30C006FF30C10637
:100D3A00FF30C2060130C007003003180130C10776
:100D4A00003003180130C2074A1FBB2EFF30C3060A
:100D5A00FF30C406FF30C5060130C3070030031850
:100D6A000130C407003003180130C507CA01400822
:100D7A00C3074108C43D4208C53DC51FD62EFF30F2
:100D8A00C306FF30C406FF30C5060130C307003072
:100D9A0003180130C407003003180130C507CA011F
:100DAA00CA0A4308F0004408F1004508F2004C085A
:100DBA00C6004608F3004A08C7004708F40017238C
:100DCA0070082000C0007108C1007208C200080043
:100DDA00003020000C180130F50000308C1801306A
:100DEA00F40065086604031DFE2E0130E50000309C
:100DFA00E60065036604031D142F7503031D7403BF
:100E0A00031D142F7503031D0D2F22000C150F2F20
:100E1A0022000C1102302000E5000030E60002300A
:100E2A0065066604031D2D2F0030E4000930E30037
:100E3A003130E2002030E100E701E70A7508031DBE
:100E4A002D2F7408031D2D2F0330E5000030E60016
:100E5A00033065066604031D5E2F0130F000003082
:100E6A00F1000030F2000030F3007008E10271086E
:100E7A00E23B7208E33B7308E43B640863046204E0
:100E8A006104031D4C2F0430E5000030E6007503B1
:100E9A00031D7403031D5E2F7503031D572F2200C4
:100EAA000C15592F22000C1102302000E5000030E9
:100EBA00E600043065066604031D6E2FE701750817
:100ECA00031D6E2F7408031D6E2F0130E5000030DC
:100EDA00E600633065066604031D8D2FE01B862F2E
:100EEA006008031D822F5F08031D822F5E08031D01
:100EFA00822F01305D02031C862F22000E120C1273
:100F0A008D2F22000C1604302000E5000030E60088
:100F1A0020006703031DB62F6330650666040319B4
:100F2A00B62F22000E1601302000DD070030DE3D0C
:100F3A000030DF3D0030E03DE01BB62F6008031DA6
:100F4A00AE2FB1305D027E305E3B1C305F3B031C2E
:100F5A00B62F0030E0001C30DF007E30DE00B030FB
:100F6A00DD0067080319BE2F633065066604031D9A
:100F7A00E02F22000E12FF302000DD07FF30DE3D99
:100F8A00FF30DF3DFF30E03DE01BD82F6008031D36
:100F9A00E02F5F08031DE02F5E08031DE02F0130DC
:100FAA005D020318E02F0030E0000030DF0000305F
:100FBA00DE000030DD00E01B08006008031DED2F95
:100FCA00B0305D027E305E3B1C305F3B031C080084
:100FDA006330E5000030E6000800DD01DE01DF01D4
:100FEA00E001E101E201E301E401E501E601E701D3
:060FFA00E8012000552A69
:020000040001F9
:02000E00C4FF2D
:00000001FF
